:100000000C9465000C948D000C948D000C948D0064
:100010000C948D000C948D000C948D000C948D002C
:100020000C948D000C948D000C948D000C948D001C
:100030000C948D000C948D000C948D000C948D000C
:100040000C9468130C948D000C948D000C948D000E
:100050000C948D000C948D000C948D000C948D00EC
:100060000C948D000C948D0000000008000201002B
:100070000003040700000000000000000102040863
:100080001020408001020408102001020408102002
:10009000040404040404040402020202020203032E
:1000A0000303030300000000250028002B000000CC
:1000B0000000240027002A004F0137028202D906DF
:1000C000BA08500ABB0C37156D0111241FBECFEFC3
:1000D000D8E0DEBFCDBF13E0A0E0B1E0E0EBF2E39B
:1000E00002C005900D92AE31B107D9F723E0AEE121
:1000F000B3E001C01D92A639B207E1F710E0C8ECE9
:10010000D0E004C02297FE010E940F17C83BD10720
:10011000C9F70E94DC160C944B190C940000BF9296
:10012000CF92DF92EF92FF920F931F93CF93DF93C3
:1001300080EBE82E82E0F82ECEE1D3E0BB24B3942E
:1001400069E070E080E293E00E94D916C82EDD24B9
:10015000C7FCD094F70101917F0110E0005D1F4FB3
:10016000C016D106E9F460E170E080E293E00E94FD
:10017000D916992787FD90958C159D0589F4B8822D
:100180002196F2EBEF16F2E0FF06D1F6DF91CF9168
:100190001F910F91FF90EF90DF90CF90BF90089547
:1001A00069E070E080E293E00E94D916992787FD0C
:1001B00090958017910721F71882E2CFDF92EF9296
:1001C000FF920F931F93CF93DF93EC0168E171E0EF
:1001D0000E945C1567E971E0CE010E945C1500EB9E
:1001E00012E09EE1E92E93E0F92E67EF71E0CE0177
:1001F0000E945C15F801D1908F014AE050E06D2D0E
:10020000CE010E94E1156DE172E0CE010E945C1505
:100210004AE050E06D2DCE010E94E1156BE472E0E2
:10022000CE010E945C154AE050E06D2DCE010E9487
:10023000E11563E572E0CE010E945C15F701819142
:100240007F01882339F065E572E0CE010E945C15DC
:1002500061E001C060E08D2D0E94A6146FE572E0A0
:10026000CE010E945C154AE050E06D2DCE010E9447
:10027000E11568E772E0CE010E945C15F2E0023BF6
:100280001F0709F0B2CF61E872E0CE01DF91CF9194
:100290001F910F91FF90EF90DF900C945C150F93DE
:1002A00000E020E040E060E083E393E00E9420155E
:1002B0000AEA20E048EA60EC8DE293E00E94201513
:1002C00060E570E087E293E00E941F096EE073E052
:1002D00080E293E00F910C945B1680E293E00C9423
:1002E000ED15CF93DF9300D000D000D0CDB7DEB7AF
:1002F0008AE093E09A83898380912F039091300361
:10030000A0913103B09132038B839C83AD83BE8374
:10031000AE014F5F5F4F6AE071E089E493E00E94B5
:100320008B0687E293E00E94DB0861E082E00E9496
:100330006D1461E083E00E946D1426960FB6F89468
:10034000DEBF0FBECDBFDF91CF910895CF93DF9376
:10035000CDB7DEB72D970FB6F894DEBF0FBECDBF79
:1003600067E273E0CE0101960E94E309CE01019697
:100370000E940C078823E1F1CE0101960E949608A5
:100380008823B1F1CE0101960E943907892BA1F390
:10039000CE0101960E94420780932603682F80E2D7
:1003A00093E00E94B516809126038A3029F768E809
:1003B00072E0CE0101960E94691568E972E0CE01F3
:1003C00001960E946915CE0101960E9465150E9452
:1003D0008F00CE0101960E94DE006EE073E080E2A5
:1003E00093E00E947116CE0101960E945C08C4CF72
:1003F0002D960FB6F894DEBF0FBECDBFDF91CF9123
:100400000895CF93CFB7F89480913C03811127C012
:10041000EAE9F0E08491E6E8F0E09491E82FF0E07A
:10042000EE0FFF1FE255FF4FA591B4918C918923E8
:1004300021F461E08AE00E94A61461E08AE00E9453
:100440006D148CB580618CBD8CB580648CBD61E011
:100450008DE00E946D1461E08BE00E946D1480912C
:100460003C038F5F80933C03CFBFCF9108950F93E0
:1004700000E020E040E060E08DE393E00E94201582
:100480000F910895FB014281538164817581FC01C4
:100490004283538364837583178216820895FB0118
:1004A00020E080E090E06AE03191332309F170EDC3
:1004B000730F7A3080F4DC016A9FC0016B9F900D4E
:1004C0001124C097830F911D37FD9A958F3F910599
:1004D00059F350F314C03E3291F4233081F0DA0125
:1004E000A20FB11D12968C932F5F80E090E0DCCFBD
:1004F000233029F4FA01858381E090E0089580E0BB
:1005000090E008950F9300E020E040E060E083E495
:1005100093E00E9420150F910895AF92BF92CF9261
:10052000DF92EF92FF920F931F93CF93DF9300D050
:1005300000D01F92CDB7DEB78C017B010E94B213B1
:10054000F801778366837627672776277A8369831E
:10055000085F1F4F42E050E0BE016F5F7F4FC80150
:100560000E94C30A81E090E09C838B8342E050E0CC
:10057000BE016D5F7F4FC8010E94C30A80E091E019
:100580009C838B8342E050E0BE016D5F7F4FC801CA
:100590000E94C30A1C821B8242E050E0BE016D5FD4
:1005A0007F4FC8010E94C30A42E050E0BE016D5F68
:1005B0007F4FC8010E94C30A42E050E0BE016D5F58
:1005C0007F4FC8010E94C30A6701F601808188231A
:1005D00011F1F7016F018191811115C05601AE181B
:1005E000BF081A141B0494F4AD8241E050E0BE0130
:1005F0006B5F7F4FC8010E94C30AA501B701C80104
:100600000E94C30A03C08E3229F7E8CF7601FFEFBC
:10061000EF1AFF0ADACF1D8241E050E0BE016B5FA6
:100620007F4FC8010E94C30AE12CFF24F394FC828F
:10063000EB8242E050E0BE016D5F7F4FC8010E9437
:10064000C30AFC82EB8242E050E0BE016D5F7F4F47
:10065000C8010E94C30A81E090E00F900F900F90B4
:100660000F900F90DF91CF911F910F91FF90EF901E
:10067000DF90CF90BF90AF9008954F925F926F92AE
:100680007F928F929F92AF92BF92CF92DF92EF9222
:10069000FF920F931F93CF93DF93CDB7DEB763978E
:1006A0000FB6F894DEBF0FBECDBF7C015B016A01BF
:1006B0000E94B2132B013C018701085F1F4F4501C7
:1006C000A12CB12CC8010E94630B1816190694F0D6
:1006D0000E94B21364197509860997098616970650
:1006E000A806B906D0F062E370E080E090E00E94D6
:1006F000E113E8CFF7014281538164817581808DD8
:10070000918DA28DB38D481759076A077B0741F475
:10071000848D958DC59721F406C08FEF9FEFFAC0A9
:100720008EEF9FEFF7C0C8010E94760A0C97ECF09D
:100730004CE050E0BE016F5F7F4FC8010E94000B8C
:100740006C818B810E94E8159A8B898BF701E6807A
:10075000F7806A8189810E94E815E816F90641F45C
:1007600089899A8997FF04C009C08DEF9FEFD2C095
:10077000C8010E94900A8CEF9FEFCCC08F709270DE
:10078000892B31F0C8010E94900A8BEF9FEFC2C005
:1007900068858F810E94E8155C01009719F0E12CB3
:1007A000F12C23C0C8010E94900A8AEF9FEFB2C0CB
:1007B00041E050E0BE01635F7F4FC8010E94000B23
:1007C0008D8581111AC08D858111F2CFC8010E94DB
:1007D000D70AC8010E94D70AC8010E94D70AC801D7
:1007E0000E94D70AFFEFEF1AFF0A6E818D810E94E7
:1007F000E815E816F906E0F20AC08D859FEF980F1C
:100800009D87882301F3C8010E94D70AF6CFE12C07
:10081000F12C41E050E0BE016D5E7F4FC8010E94A7
:10082000000B8B89982F907C61F4882371F08B8961
:100830009FEF980F9B8B882341F0C8010E94D70A35
:10084000F6CFC8010E94D70A1B8A8B898111E1CF9C
:1008500042E050E0BE01615F7F4FC8010E94000B83
:1008600042E050E0BE01635F7F4FC8010E94000B71
:10087000C8010E94D70AC8010E94D70AC8010E9475
:10088000D70AC8010E94D70A42E050E0BE016F5E5D
:100890007F4FC8010E94000B8F8598898115914078
:1008A00029F48D859E858115914019F0812C912C1C
:1008B00016C089899A898115944031F0C8010E9437
:1008C000900A87EF9FEF26C0B6016E5F7F4F44E02E
:1008D00050E0C8010E94000B81E090E01BC08989B4
:1008E0009A899827892798278816990638F4C80185
:1008F0000E94D70A2FEF821A920AF1CF8FEFE81ADF
:10090000F80AEA14FB0409F084CFC8010E94900A97
:1009100086EF9FEF63960FB6F894DEBF0FBECDBF94
:10092000DF91CF911F910F91FF90EF90DF90CF90CB
:10093000BF90AF909F908F907F906F905F904F90FF
:1009400008958F929F92AF92BF92CF92DF92EF92D3
:10095000FF920F931F93CF93DF9300D000D000D06E
:10096000CDB7DEB78C015B016A010E944F024C01DA
:10097000009709F05DC0F80142815381648175815F
:100980008091450390914603A0914703B09148039D
:10099000481759076A077B0709F44EC00E94B21333
:1009A0007801F8E0EF0EF11C6F7077277C5FC701CC
:1009B0000E94360B813009F043C08AE093E09A83AD
:1009C0008983F80182819381A481B5818B839C8383
:1009D000AD83BE8345E350E0BE016F5F7F4FC7012B
:1009E0000E94B70A892B19F4812C912C1DC0B501E6
:1009F000C8010E948D02892BB9F3C7010E94BF0A6A
:100A0000892B91F333E0A32EB12CA60168E873E1A2
:100A1000C8010E943D034C01F1E0AF1AB10821F07A
:100A20008F3F2FEF920789F3C7010E94A20A08C0E7
:100A300088248394912C04C09EEF892E99249A9443
:100A4000C40126960FB6F894DEBF0FBECDBFDF916E
:100A5000CF911F910F91FF90EF90DF90CF90BF90BB
:100A6000AF909F908F90089520913B03222399F09F
:100A70003FB7F89420913B03213059F42DB32093D4
:100A800039034DB320913A03209524232DBB3FBF5A
:100A900002C0309339038CBD9DBD089580913B0306
:100AA000882361F09FB7F89420913B03809139032C
:100AB000213019F48DBB9FBF08958FBF089544E086
:100AC00050E0BC0181E090E00C945E1144E050E005
:100AD000BC0185E090E00C945E1144E050E0BC0164
:100AE0008FE090E00C945E118F929F92AF92BF9234
:100AF000CF92DF92EF92FF920F931F93CF93DF93EA
:100B000000D0CDB7DEB74C016A01590183E793E00D
:100B100069837A830E94F61080E590E00E94340594
:100B200046E050E069817A8189E090E00E945E11A0
:100B3000C60102960E946D05C80102960E945F05DB
:100B4000C70102960E9466050E944E05F50142818A
:100B5000538164817581F401428353836483758377
:100B60000F900F90DF91CF911F910F91FF90EF9019
:100B7000DF90CF90BF90AF909F908F9008956F922D
:100B80007F928F929F92AF92BF92CF92DF92EF921D
:100B9000FF920F931F93CF93DF93CDB7DEB76E977E
:100BA0000FB6F894DEBF0FBECDBF6C015B017A01BA
:100BB0004901380100E02FEF4FEF6FEFCE0149966A
:100BC0000E9420152AE033E03A8329838B8D9C8D87
:100BD000AD8DBE8D8B839C83AD83BE8338872F8381
:100BE000F30182819381A481B58189879A87AB873C
:100BF000BC873E872D87F40182819381A481B581D2
:100C00008F87988BA98BBA8B3C8B2B8BF7014281FA
:100C10005381648175814D8B5E8B6F8B788FCE0194
:100C200001967C018E01095F1F4F9E01235F3F4F9C
:100C3000AE014D5E5F4FB501C6010E9474056E9610
:100C40000FB6F894DEBF0FBECDBFDF91CF911F91DD
:100C50000F91FF90EF90DF90CF90BF90AF909F905B
:100C60008F907F906F900895CF92DF92EF92FF92D6
:100C70000F931F93CF93DF93CDB7DEB768970FB66F
:100C8000F894DEBF0FBECDBF6B017901DA01129679
:100C90004D915D916D917C9115974D8B5E8B6F8B16
:100CA000788FAAE0B3E0BA83A98321E0288F0D8969
:100CB0001E892F89388D0B831C832D833E83B88733
:100CC000AF83F701028113812481358109871A8757
:100CD0002B873C87BE87AD874F87588B698B7A8B74
:100CE0008E010F5F1F4F9E01295F3F4FAE01435F93
:100CF0005F4FB6010E94BF0568960FB6F894DEBF3D
:100D00000FBECDBFDF91CF911F910F91FF90EF905C
:100D1000DF90CF9008950F931F93CF93DF93CDB7BC
:100D2000DEB762970FB6F894DEBF0FBECDBFDB0112
:100D3000FA0142815381648175814F87588B698B99
:100D40007A8BEAE0F3E0FA83E98321E02A8B0F85CE
:100D5000188929893A890B831C832D833E83F88760
:100D6000EF8349875A876B877C879E012F5F3F4FB0
:100D7000AE01495F5F4FBD010E94340662960FB617
:100D8000F894DEBF0FBECDBFDF91CF911F910F91C1
:100D900008952AE033E0FC0131832083FB01428186
:100DA000538164817581FC0142835383648375831D
:100DB00008950F9300E020E040E060E089E593E0D3
:100DC0000E94201589E493E00F910C94161581E0A0
:100DD00086270895862F0895DC01ED91FC91048CFF
:100DE000F58DE02D099591E089270895CF93DF9344
:100DF0001F92CDB7DEB76983DC01ED91FC910280D3
:100E0000F381E02D41E050E0BE016F5F7F4F099517
:100E10000F90DF91CF91089521E0FC01848584300B
:100E200009F420E0822F0895FC019485FB0184855C
:100E3000981303C081E0943009F480E008950F9383
:100E40001F93CF93DF93EC018A018C85843021F0CE
:100E50000E94980E892B39F481E090E09B838A836D
:100E600080E090E001C0C801DF91CF911F910F9108
:100E70000895FC018485843011F00C948F0F80E07C
:100E800090E00895CF93DF931F92CDB7DEB741E096
:100E900050E0BE016F5F7F4FFC0184850E942F0FE1
:100EA000181619061CF4898190E002C08FEF9FEF9D
:100EB0000F90DF91CF910895FC0184850C942F0F42
:100EC0000F931F93CF93DF931F92CDB7DEB78C01A3
:100ED000DC01ED91FC910480F581E02D0995892BD1
:100EE00051F0BE016F5F7F4FF80184850E94BA0FF9
:100EF000898190E002C08FEF9FEF0F90DF91CF913B
:100F00001F910F910895FC0184850C94E90FCF92F5
:100F1000DF92EF92FF920F931F93CF93DF93CDB7A2
:100F2000DEB7AF970FB6F894DEBF0FBECDBF7C0122
:100F30008B016A01CE0101960E941615CE01099619
:100F40000E94430CCE018A960E94161569E473E054
:100F5000CE0184960E94C906BE016C5D7F4FCE0112
:100F600001960E944202AE01465D5F4FB801CE017C
:100F700001960E94A10481309105C1F4D701ED9141
:100F8000FC910484F585E02D8AE093E09DA38CA379
:100F90000CA51DA52EA53FA50EA31FA328A739A705
:100FA000A601BE016C5D7F4FC7010995AF960FB6D4
:100FB000F894DEBF0FBECDBFDF91CF911F910F918F
:100FC000FF90EF90DF90CF900895FC01262F1382C1
:100FD000128248EE53E060E070E0448355836683FC
:100FE000778386EB92E09183808324870895FC01C8
:100FF0008485843011F00C94420D80E00895DF92D6
:10100000EF92FF920F931F93CF93DF93EC017B013D
:101010008A018C85843009F045C0D12C8D2D0E9429
:10102000420D811102C0DC8607C08B7F8831D9F365
:10103000D39484E0D812F2CF8C85843099F120913A
:101040001001309111012F5F3F4F11F420E030EC7F
:101050003093110120931001409110015091110122
:1010600020E061E00E94940DB7016E5F7F4FA80100
:101070008C850E941A0E811103C084E08C8712C0F7
:10108000CE010E94F707873151F061E070E080E007
:1010900090E00E94E113CE010E94F707ECCF81E0BF
:1010A00090E002C080E090E0DF91CF911F910F911E
:1010B000FF90EF90DF900895CF92DF92EF92FF9232
:1010C000CF93DF93EC018C85843049F10E94720E3E
:1010D0000E94B2136B017C01CE010E94F7078823A6
:1010E000A1F061E070E080E090E00E94E1130E94D6
:1010F000B2136C197D098E099F09683E7340810502
:10110000910550F38C850E946A0DEC85F0E0EE0F9E
:10111000FF1FEF5AFC4F1182108284E08C87DF9111
:10112000CF91FF90EF90DF90CF900895CF93DF9312
:10113000EC018C858430D1F0CE010E94F707843118
:10114000A9F0882399F0883189F08C3169F4E8811D
:10115000F9810480F581E02DCE01099521E0892BEC
:1011600009F420E0822F03C081E001C080E0DF911C
:10117000CF9108950F9300E020E040E060E08FE51C
:1011800093E00E9420150F910895CF93DF931F9253
:10119000CDB7DEB76983DC01ED91FC910280F3816C
:1011A000E02D41E050E0BE016F5F7F4F09950F9049
:1011B000DF91CF910895EF92FF920F931F93CF93FA
:1011C000DF93CDB7DEB72D970FB6F894DEBF0FBE15
:1011D000CDBF7C0100E010E0602FCE0101960E949F
:1011E000E507CE0101960E94F707811116C0F701AD
:1011F0004481558120E061E0802F0E94940D802F72
:101200000E94E80DF70184819581F801EE0FFF1F20
:10121000EF5AFC4F9183808305C00F5F1F4F04304E
:101220001105D1F62D960FB6F894DEBF0FBECDBFD7
:10123000DF91CF911F910F91FF90EF900895FC01E6
:10124000138212828AED92E0918380837583648396
:101250000895BF92CF92DF92EF92FF920F931F9368
:10126000CF93DF93CDB7DEB72D970FB6F894DEBFDF
:101270000FBECDBF8C0141E5C42E43E0D42EB12C6E
:10128000E12CF12C6B2DCE0101960E94E507D601D1
:101290002D913D916D01F8018481958128173907C1
:1012A000B1F4CE0101960E94F707843169F0CE01B6
:1012B00001960E94F7078C3151F4CE0101960E94ED
:1012C0003907892B99F003C0EE24E394F12CB394F1
:1012D000F4E0BF12D7CFEF2871F4D801ED91FC9163
:1012E0000480F581E02DC801099505C0CE01019665
:1012F0000E945C08ECCF2D960FB6F894DEBF0FBEAF
:10130000CDBFDF91CF911F910F91FF90EF90DF90B4
:10131000CF90BF9008957F928F929F92AF92BF928D
:10132000CF92DF92EF92FF920F931F93CF93DF93B1
:10133000CDB7DEB72D970FB6F894DEBF0FBECDBF89
:101340006C015B014A010E94290951E5E52E53E039
:10135000F52E712C00E010E0672DCE0101960E9461
:10136000E507F701219131917F01F6018481958193
:101370002817390731F4CE0101960E94F70787310B
:10138000C9F07394F4E07F12E7CFC8012D960FB631
:10139000F894DEBF0FBECDBFDF91CF911F910F91AB
:1013A000FF90EF90DF90CF90BF90AF909F908F9085
:1013B0007F900895A401B501CE0101960E941F07F8
:1013C000080F191FDECFBF92CF92DF92EF92FF92EC
:1013D0000F931F93CF93DF93CDB7DEB72D970FB643
:1013E000F894DEBF0FBECDBF8C016B01CB010E9414
:1013F000290961E5E62E63E0F62EB12C6B2DCE01B6
:1014000001960E94E507F701219131917F01F601D4
:10141000848195812817390751F5CE0101960E94E4
:10142000F707873111F08C3111F5CE0101960E943A
:101430003907892BE1F08B819C81F80193838283AA
:101440008D819E81AF81B88584839583A683B78380
:1014500049855A856B857C8540875187628773876C
:1014600086EB92E0918380838D85848708C0B39456
:10147000F4E0BF12C3CF64E0C8010E94E507C801D1
:101480002D960FB6F894DEBF0FBECDBFDF91CF9182
:101490001F910F91FF90EF90DF90CF90BF90089534
:1014A0000F9300E020E040E060E085E693E00E94DA
:1014B00020150F910895DC01ED91FC91008CF18DC8
:1014C000E02D09942AE033E0FC0131832083FB0105
:1014D0004089518962897389FC0142835383648303
:1014E00075830895FC01848995890895FC01818D97
:1014F000928D0895CF93DF931F92CDB7DEB76983A6
:10150000DC01ED91FC910280F381E02D41E050E09F
:10151000BE016F5F7F4F09950F90DF91CF910895C6
:10152000CF93DF93EC01898D9A8D892B41F0E8816F
:10153000F9810680F781E02DCE010995F4CFDF9186
:10154000CF910895CF93DF93EC01888D843061F0C3
:101550000E946A0DE88DF0E0EE0FFF1FEF5AFC4F7E
:101560001182108284E0888FDF91CF910895FC0171
:10157000178A168A6E5F7F4F808D0C943110FC01A4
:10158000808D0C947710CF93DF93EC019A018E89B4
:101590009F89AB01BC01888D0E94EA0F2E893F898B
:1015A000280F391F3F8B2E8BDF91CF9108950F931A
:1015B0001F93CF93DF931F92CDB7DEB78C01FC0151
:1015C000818D928D892B59F041E050E0BE016F5F13
:1015D0007F4F808D0E942F0F181619061CF08FEF79
:1015E0009FEF08C0F801818D928D0197928F818FB6
:1015F000898190E00F90DF91CF911F910F91089515
:10160000CF93DF93EC01898D9A8D009719F48FEFBA
:101610009FEF10C04817590708F0AC01888D0E9451
:101620002F0F181619069CF7298D3A8D281B390B98
:101630003A8F298FDF91CF910895CF93DF931F9237
:10164000CDB7DEB7FC01218D328D232B49F0BE01D1
:101650006F5F7F4F808D0E94BA0F898190E002C03A
:101660008FEF9FEF0F90DF91CF910895FF920F932F
:101670001F93CF93DF93EC018B01888D8430E1F4CD
:10168000F12C8F2D0E94420D811102C0F88E06C0F0
:101690008831E1F3F39484E0F812F3CF888D84303D
:1016A00059F01D870C871A8E198E20E0A80162E080
:1016B0000E94940D81E001C080E0DF91CF911F91E5
:1016C0000F91FF9008950F931F93CF93DF93CDB7A2
:1016D000DEB728970FB6F894DEBF0FBECDBF8C01E2
:1016E000DC01ED91FC910284F385E02D0995F80170
:1016F000808D0E948F0F1816190644F548E050E0BF
:10170000BE016F5F7F4FD80158968C910E942F0FBA
:1017100018161906ECF4BE016F5F7F4FC8010E96D4
:101720000E942C158D8190E0982F88272E81820FA2
:10173000911DF801958B848B8F8190E0982F8827DD
:101740002885820F911D928F818F02C080E090E0EA
:1017500028960FB6F894DEBF0FBECDBFDF91CF91B4
:101760001F910F9108958F929F92AF92BF92CF9247
:10177000DF92EF92FF920F931F93CF93DF9300D0EE
:1017800000D000D0CDB7DEB78C017B014A01FC014F
:10179000808D843009F063C073E0A72E74E0B72E0B
:1017A000C12CD12CC5010E948D11811103C0F801FB
:1017B000C08E0AC08831D9F3FFEFCF1ADF0AB39485
:1017C000E4E0CE16D10471F7F801808D843009F47D
:1017D00046C096E0E2E1F1E0DE01119601900D9243
:1017E0009A95E1F7F70193819F779C8394819D837C
:1017F00095819E83B7016E5F7F4F90E0982F882779
:1018000044E050E0845F9B4F0E945E11F801808DA0
:1018100090E00496F82EEE24692DC70140960E94B0
:10182000D410682DC70141960E94D410F801808D14
:1018300090E0982F882746E050E0BE016F5F7F4F11
:101840008A5F9B4F0E945E11F801128E118E20E874
:10185000A40162E0808D0E94940D81E001C080E0CF
:1018600026960FB6F894DEBF0FBECDBFDF91CF91A5
:101870001F910F91FF90EF90DF90CF90BF90AF90AE
:101880009F908F900895CF93DF93EC011B821A8273
:1018900048EE53E060E070E04C835D836E837F83AD
:1018A00084EE92E099838883CE010E960E941615ED
:1018B00084E0888FDF91CF910895CF92DF92EF92ED
:1018C000FF920F931F93CF93DF93CDB7DEB7AF9700
:1018D0000FB6F894DEBF0FBECDBF7C018B016A014D
:1018E000CE0101960E941615CE0109960E94430C66
:1018F000CE018A960E94161569E473E0CE018496A3
:101900000E94C906BE016C5D7F4FCE0101960E9408
:101910004202AE01465D5F4FB801CE0101960E94C2
:10192000A10481309105C1F4D701ED91FC910088AB
:10193000F189E02D8AE093E09DA38CA30CA51DA561
:101940002EA53FA50EA31FA328A739A7A601BE0158
:101950006C5D7F4FC7010995AF960FB6F894DEBF57
:101960000FBECDBFDF91CF911F910F91FF90EF90F0
:10197000DF90CF9008950F9300E020E040E060E01A
:101980008BE693E00E9420150F910895CF92DF928D
:10199000EF92FF920F9330E0C12CF2E1DF2EFAE7D5
:1019A000EF2EF12C4C155D056E057F0540F4F69485
:1019B000E794D794C7943F5F3630A1F737E041E012
:1019C0004327211102C050E701C050E5242F30E029
:1019D0003595279523700C70202B252BFC01208337
:1019E000417041830F91FF90EF90DF90CF90089569
:1019F00090E0982F882744E050E0845F9B4F0C9440
:101A00005E11282F30E02C5F3F4F922F8827860FE2
:101A1000971F0C948D1162E070E00C94010DFB0196
:101A2000282F30E02C5F3F4F922F8827642F8E0F96
:101A30009F1F0C94D410CF93DF93C82FD62F472F1E
:101A400064E070E00E940F0D4D2F65E070E08C2F78
:101A5000DF91CF910C940F0D462F62E070E00C9453
:101A60000F0DCF93DF93C82FD62F472F60E170E083
:101A70000E940F0D4D2F61E170E08C2FDF91CF910F
:101A80000C940F0D0F931F93CF93DF9300D01F92F1
:101A9000CDB7DEB7182F00E021E040E059E06DE35C
:101AA00070E0CE0101960E94C60C89819A810E9445
:101AB000340563E070E0812F0E94010D8B830E944A
:101AC0004E058B810F900F900F90DF91CF911F915A
:101AD0000F9108950F931F93CF93DF9300D0CDB74D
:101AE000DEB7182F00E021E040E059E06DE370E040
:101AF000CE0101960E94C60C89819A810E9434050C
:101B000040E150E0612F83E793E00E9457136FEFAD
:101B1000812F0E942C0D0E944E050F900F90DF9197
:101B2000CF911F910F910895CF92DF92EF92FF9284
:101B30000F931F93CF93DF9300D0CDB7DEB7182F4D
:101B4000D62E7A01C22E8FEF860F8530A8F5812F11
:101B50000E946A0D00E021E040E059E06DE370E092
:101B6000CE0101960E94C60C89819A810E9434059B
:101B70004D2D4C2960E070E0812F0E940F0DE11483
:101B8000F10411F0B7010AC0609171037091720302
:101B90006F5F7F4F7093720360937103812F0E9478
:101BA0001B0D41E050E0612F83E793E00E94571343
:101BB0000E944E0581E001C080E00F900F90DF9100
:101BC000CF911F910F91FF90EF90DF90CF900895EC
:101BD0000F931F93CF93DF9300D0CDB7DEB7182FAD
:101BE00000E021E040E059E06DE370E0CE010196B5
:101BF0000E94C60C89819A810E94340563E070E0DE
:101C0000812F0E94010D833121F00E944E0580E05A
:101C10000AC042E050E0612F83E793E00E9457132F
:101C20000E944E0581E00F900F90DF91CF911F91A0
:101C30000F910895CF92DF92EF92FF920F931F932F
:101C4000CF93DF9300D0CDB7DEB7182F7B016A01A9
:101C5000FB0180818F3F51F481818F3F99F4828114
:101C60008F3F81F483818F3F69F430C081110AC0B6
:101C7000FB018181811106C08281811103C08381B2
:101C8000882321F1C114D10409F100E021E040E0F2
:101C900059E06DE370E0CE0101960E94C60C898187
:101CA0009A810E943405B701812F0E94F80CB60179
:101CB000812F0E94310D44E050E0612F83E793E0D3
:101CC0000E9457130E944E0581E001C080E00F90F2
:101CD0000F90DF91CF911F910F91FF90EF90DF90C8
:101CE000CF9008950F931F93CF93DF9300D0CDB77C
:101CF000DEB7182F00E021E040E059E06DE370E02E
:101D0000CE0101960E94C60C89819A810E943405F9
:101D100048E050E0612F83E793E00E9457130E9450
:101D20004E050F900F90DF91CF911F910F91089565
:101D3000BF92CF92DF92EF92FF920F931F93CF93B8
:101D4000DF9300D01F92CDB7DEB7B82E6B017A01BA
:101D5000413088E0580718F0E12C98E0F92E00E0B7
:101D600021E040E059E06DE370E0CE0101960E9471
:101D7000C60C89819A810E9434056B2D83E793E01C
:101D80000E94C5118C0163E070E08B2D0E94010D53
:101D90008B830E944E058B81873111F08C3131F499
:101DA0000E9467130E151F05D0F202C0E12CF12C22
:101DB00000E021E040E059E06DE370E0CE010196E3
:101DC0000E94C60C89819A810E9434059701A60160
:101DD0006B2D83E793E00E94841240E250E06B2D6C
:101DE00083E793E00E9457138B2D0E940B0D84FD17
:101DF00022C063E070E08B2D0E94010D811108C0AC
:101E00000E944E058B2D0E946A0D80E090E01AC062
:101E10000E944E050E94671300E021E040E059E077
:101E20006DE370E0CE0101960E94C60C89819A8113
:101E30000E943405D9CF60E18B2D0E942C0D0E94A9
:101E40004E05C7010F900F900F90DF91CF911F911A
:101E50000F91FF90EF90DF90CF90BF900895AF92D9
:101E6000BF92CF92DF92EF92FF920F931F93CF9387
:101E7000DF9300D0CDB7DEB7182F5B016A0100E019
:101E800021E040E059E06DE370E0CE0101960E9450
:101E9000C60C89819A810E943405612F83E793E003
:101EA0000E94F9117C010097A1F463E070E0812F9A
:101EB0000E94010D843119F1882309F121E030E0FD
:101EC0008C3111F420E030E0EE24FF24E21AF30A12
:101ED00016C0C816D9060CF476011E141F047CF433
:101EE00000E09701A501612F83E793E00E940713AB
:101EF00040E450E0612F83E793E00E9457130E9473
:101F00004E05C7010F900F90DF91CF911F910F9158
:101F1000FF90EF90DF90CF90BF90AF9008950F9318
:101F20001F93CF93DF9300D000D0CDB7DEB7182F2B
:101F300000E021E040E059E06DE370E0CE01019661
:101F40000E94C60C89819A810E943405612F83E723
:101F500093E00E94F9118B839C830E944E058B8134
:101F60009C810F900F900F900F90DF91CF911F9158
:101F70000F910895EF92FF920F931F93CF93DF93EA
:101F800000D0CDB7DEB7182F7B0100E021E040E0A4
:101F900059E06DE370E0CE0101960E94C60C898184
:101FA0009A810E94340501E021E030E0A701612F11
:101FB00083E793E00E9407130E944E0581E090E0C2
:101FC0000F900F90DF91CF911F910F91FF90EF90A5
:101FD000089508959F92AF92BF92CF92DF92EF92B1
:101FE000FF920F931F93CF93DF9300D0CDB7DEB74F
:101FF000982E6B015A01790100E021E040E059E0A0
:102000006DE370E0CE0101960E94C60C89819A8131
:102010000E943405692D83E793E00E94C5118E1557
:102020009F0530F4692D83E793E00E94C5117C0180
:1020300087019501A601692D83E793E00E9415129F
:102040000E944E05C7010F900F90DF91CF911F9115
:102050000F91FF90EF90DF90CF90BF90AF909F9047
:102060000895CF92DF92EF92FF920F931F93CF9339
:10207000DF9300D0CDB7DEB7182F7B016A01FB01DB
:102080008081811109C08181811106C08281811105
:1020900003C083818823F1F0C114D104D9F000E09A
:1020A00021E040E059E06DE370E0CE0101960E942E
:1020B000C60C89819A810E943405B701812F0E9444
:1020C000F80CB601812F0E94310D0E944E0581E06F
:1020D00090E002C080E090E00F900F90DF91CF91F0
:1020E0001F910F91FF90EF90DF90CF9008950F9385
:1020F0001F93CF93DF9300D0CDB7DEB7182F00E04A
:1021000021E040E059E06DE370E0CE0101960E94CD
:10211000C60C89819A810E94340540E250E0612F0B
:1021200083E793E00E945713812F0E940B0D84FDDB
:1021300021C0812F0E940B0D83FF09C068E1812F10
:102140000E942C0D0E944E0580E090E01BC00E9472
:102150004E050E94671300E021E040E059E06DE386
:1021600070E0CE0101960E94C60C89819A810E947E
:102170003405DACF60E1812F0E942C0D0E944E05BC
:1021800081E090E00F900F90DF91CF911F910F9120
:1021900008958EBD00000DB407FEFDCF8EB50895E5
:1021A0002A9808952A9A08951F93CF93DF9300D019
:1021B000CDB7DEB7182F6A8399830E94D01080EFC5
:1021C0000E94C9109981892F0E94C910812F0E94F5
:1021D000C9106A81862F0E94C9100E94D21081E026
:1021E0000F900F90DF91CF911F910895CF93DF93C0
:1021F000EC016CE271E080E090E00E94E1130E944B
:102200000102229A80913B03882399F09FB7F894AA
:1022100080913B03813059F48DB3809339032DB302
:1022200080913A03809582238DBB9FBF02C090931B
:10223000390380E58CBD1DBC60E880E090E00E9421
:10224000D41065E58BE190E00E94D41065E58AE149
:1022500090E00E94D41080913B03882361F09FB7E7
:10226000F89420913B0380913903213019F48DBB00
:102270009FBF01C08FBF80E090E49983888380E096
:1022800090E69987888780E098E49B838A8380E042
:1022900098E69B878A8780E090E59D838C8380E029
:1022A00090E79D878C8780E098E59F838E8380E010
:1022B00098E79F878E87DF91CF910895CF92DF9225
:1022C000EF92FF920F931F93CF93DF93EC017A016C
:1022D0008B016C01C40ED51ECC15DD05A1F00E944A
:1022E000D01080EF0E94C9108D2F0E94C9108C2F32
:1022F0000E94C9102196F80181918F010E94C91096
:102300000E94D210E9CFC701DF91CF911F910F91A9
:10231000FF90EF90DF90CF9008951F93CF93DF93BE
:102320001F92CDB7DEB7182F99830E94D0108FE08F
:102330000E94C9109981892F0E94C910812F0E9483
:10234000C91080E00E94C91089830E94D21089813F
:102350000F90DF91CF911F9108951F93CF93DF933B
:10236000182F60E270E00E94010DC82FD0E061E2FA
:1023700070E0812F0E94010DDC2FCC279E01282BBD
:10238000C901DF91CF911F910895FF920F931F9381
:10239000CF93DF93F62EC0E0D0E08F2D0E94AD11D9
:1023A0008C01009721F08F2D0E94AD11EC01C01718
:1023B000D10799F7CE01DF91CF911F910F91FF9037
:1023C00008951F93CF93DF93182F66E270E00E9469
:1023D000010DC82FD0E067E270E0812F0E94010D4F
:1023E000DC2FCC279E01282BC901DF91CF911F91B3
:1023F0000895FF920F931F93CF93DF93F62EC0E0C3
:10240000D0E08F2D0E94E1118C01009721F08F2DDB
:102410000E94E111EC01C017D10799F7CE01DF91BD
:10242000CF911F910F91FF9008956F927F929F928D
:10243000AF92BF92CF92DF92EF92FF920F931F93D2
:10244000CF93DF931F92CDB7DEB7D82E962E3A01E9
:10245000590164E270E0892D99830E94010DE82EF4
:10246000F12C65E270E0892D0E94010DFE2CEE2416
:10247000E82AE60CF71C970137706D2C9981792EAC
:10248000690C711C690C711CD301ED91FC91E20F78
:10249000F31FC901800F911F81309840A0F0C12C1B
:1024A00048E0D42EC21AD30AA601B501CF010E947A
:1024B0005E11A8014C195D09B5016C0D7D1DF3017C
:1024C0008081918103C0A801B501CF010E945E11F6
:1024D000E00EF11E4F2D64E270E0892D0E940F0D79
:1024E0004E2D65E270E0892D0F90DF91CF911F9105
:1024F0000F91FF90EF90DF90CF90BF90AF909F90A3
:102500007F906F900C940F0D0F931F9389019A0188
:1025100040E050E00E9415121F910F910895CF9254
:10252000DF92EF92FF920F931F93CF93DF93EC0113
:102530007A018B016C01C40ED51ECC15DD05A9F006
:102540000E94D0108FE00E94C9108D2F0E94C910E8
:102550008C2F0E94C910219680E00E94C910F801BA
:1025600081938F010E94D210E8CFC701DF91CF91F4
:102570001F910F91FF90EF90DF90CF900895AF9251
:10258000BF92CF92DF92EF92FF920F931F93CF9360
:10259000DF9300D0CDB7DEB75A8349835901E98173
:1025A000FA81F7707C01E60EF11CE60EF11CD701F2
:1025B00018968D919C9119978E0F9F1F98012E0F41
:1025C0003F1F2130384098F0C12C68E0D62ECE1A3B
:1025D000DF0AA601B5010E948F12A8014C195D09FE
:1025E000B5016C0D7D1DF7018085918502C0A801A4
:1025F000B5010F900F90DF91CF911F910F91FF9038
:10260000EF90DF90CF90BF90AF900C948F128F928D
:102610009F92AF92BF92CF92DF92EF92FF920F9371
:102620001F93CF93DF936C01962E5A017901802E70
:1026300068E270E0892D0E94010DC82FD0E069E2A8
:1026400070E0892D0E94010DDC2FCC27C82B87015B
:102650009501AE01692DC6010E94BF1281101AC0FA
:10266000CE0DDF1D4D2F68E270E0892D0E940F0D09
:102670004C2F69E270E0892DDF91CF911F910F916E
:10268000FF90EF90DF90CF90BF90AF909F908F9092
:102690000C940F0DDF91CF911F910F91FF90EF9050
:1026A000DF90CF90BF90AF909F908F900895CF9381
:1026B000C62F61E070E08C2F0E940F0D61E070E08A
:1026C0008C2F0E94010D8111F9CFCF9108950895AB
:1026D0001F920F920FB60F9211242F933F938F9357
:1026E0009F93AF93BF938091840390918503A091B2
:1026F0008603B09187033091830323E0230F2D37A6
:1027000020F40196A11DB11D05C026E8230F0296F5
:10271000A11DB11D209383038093840390938503AF
:10272000A0938603B09387038091880390918903D7
:10273000A0918A03B0918B030196A11DB11D8093D6
:10274000880390938903A0938A03B0938B03BF916E
:10275000AF919F918F913F912F910F900FBE0F904E
:102760001F9018952FB7F89460918403709185039A
:1027700080918603909187032FBF08953FB7F89407
:102780008091880390918903A0918A03B0918B0373
:1027900026B5A89B05C02F3F19F00196A11DB11DBC
:1027A0003FBF6627782F892F9A2F620F711D811DD9
:1027B000911D42E0660F771F881F991F4A95D1F738
:1027C0000895CF92DF92EF92FF92CF93DF936B0148
:1027D0007C010E94BE13EB01C114D104E104F10499
:1027E00089F00E9467130E94BE136C1B7D0B683E2C
:1027F000734090F381E0C81AD108E108F108C8518C
:10280000DC4FEACFDF91CF91FF90EF90DF90CF9038
:102810000895789484B5826084BD84B5816084BD58
:1028200085B5826085BD85B5816085BDEEE6F0E049
:10283000808181608083E1E8F0E0108280818260A5
:102840008083808181608083E0E8F0E08081816026
:102850008083E1EBF0E0808184608083E0EBF0E056
:10286000808181608083EAE7F0E0808184608083FA
:1028700080818260808380818160808380818068A4
:1028800080831092C1000895833081F028F4813054
:1028900099F08230A1F008958730A9F08830B9F01E
:1028A0008430D1F4809180008F7D03C080918000BE
:1028B0008F7780938000089584B58F7702C084B5A8
:1028C0008F7D84BD08958091B0008F7703C0809183
:1028D000B0008F7D8093B0000895CF93DF9390E098
:1028E000FC01E458FF4F2491FC01E057FF4F849115
:1028F000882349F190E0880F991FFC01E255FF4FB2
:10290000A591B4918C559F4FFC01C591D4919FB76F
:10291000611108C0F8948C91209582238C93888152
:1029200082230AC0623051F4F8948C91322F309592
:1029300083238C938881822B888304C0F8948C91A4
:10294000822B8C939FBFDF91CF9108950F931F939C
:10295000CF93DF931F92CDB7DEB7282F30E0F90178
:10296000E859FF4F8491F901E458FF4F1491F901A0
:10297000E057FF4F04910023C9F0882321F06983B9
:102980000E9444146981E02FF0E0EE0FFF1FEC5528
:10299000FF4FA591B4919FB7F8948C91611103C03A
:1029A0001095812301C0812B8C939FBF0F90DF91E5
:1029B000CF911F910F910895AF92BF92CF92DF9266
:1029C000EF92FF920F931F93CF93DF936C017B01E4
:1029D000C0E0D0E000E010E0F601EC0FFD1F4AE09F
:1029E00050E06281C7010E94E1155C016EE2C701FF
:1029F0000E945E158A0D9B1D080F191F2196C3307A
:102A0000D10551F74AE050E0F6016581C7010E9407
:102A1000E115800F911FDF91CF911F910F91FF90D2
:102A2000EF90DF90CF90BF90AF9008952AE033E011
:102A3000FC0131832083128213821482158208954F
:102A40000F93FC018AE093E0918380836283438348
:102A5000248305830F910895FB0140815181628198
:102A60007381FC01428353836483758308958AE0F4
:102A700093E090938D0380938C0310928E031092B9
:102A80008F031092900310929103089561157105C0
:102A900081F0DB010D900020E9F7AD0141505109B3
:102AA000461B570BDC01ED91FC910280F381E02D78
:102AB000099480E090E008950C944615DC01ED91B6
:102AC000FC910190F081E02D09946CE073E00C948E
:102AD00046150F931F93CF93DF93EC010E94461589
:102AE0008C01CE010E946515800F911FDF91CF915F
:102AF0001F910F9108958F929F92AF92BF92CF92A4
:102B0000DF92EF92FF920F931F93CF93DF93CDB796
:102B1000DEB7A1970FB6F894DEBF0FBECDBF7C0124
:102B2000C42EE52FCB01D22E19A221E02D1510F0D5
:102B30002AE0D22E8E010F5D1F4F8D2C912CA12CDF
:102B4000B12C6C2D7E2FA50194010E94EB168C2DCB
:102B5000D29E80191124015011098A3014F4805D2D
:102B600001C0895CF80180832115310541055105BB
:102B700021F0C22EE32FCA01E4CFB801C7010E94A1
:102B80004615A1960FB6F894DEBF0FBECDBFDF91FC
:102B9000CF911F910F91FF90EF90DF90CF90BF905A
:102BA000AF909F908F9008952115310541F4DC017D
:102BB000ED91FC910190F081E02D642F09940C942B
:102BC0007B159A01462F50E060E070E00C94D4151C
:102BD00070E09B01382BC9010895FC01808191812F
:102BE0000C94AB17CF93DF93EC0188819981009708
:102BF00011F00E94AB17198218821D821C821B8261
:102C00001A82DF91CF9108950F931F93CF93DF9393
:102C1000EC018B016F5F7F4F888199810E943A1888
:102C2000009731F0998388831B830A8381E001C078
:102C300080E0DF91CF911F910F910895CF93DF93A3
:102C4000EC0188819981892B29F08A819B818617E3
:102C5000970760F4CE010E940416882341F08C810E
:102C60009D81892B19F4E881F981108281E0DF913F
:102C7000CF910895EF92FF920F931F93CF93DF931D
:102C8000EC017B018A01BA010E941E16811104C069
:102C9000CE010E94F21507C01D830C83B701888105
:102CA00099810E940D19CE01DF91CF911F910F9153
:102CB000FF90EF900895FC0111821082138212821E
:102CC000158214826115710559F0FB0101900020F5
:102CD000E9F7AF0141505109461B570B0C943A16C6
:102CE0000895CF93DF93EC016115710561F0FB014D
:102CF00001900020E9F7AF0141505109461B570BE5
:102D00000E943A1602C00E94F215CE01DF91CF91C7
:102D10000895EF92FF920F931F93CF93DF93EC01EF
:102D20007B010C811D816115710511F480E016C0D5
:102D30004115510591F0040F151FB8010E941E1690
:102D40008823A1F3288139818C819D81B701820F6D
:102D5000931F0E940D191D830C8381E0DF91CF9199
:102D60001F910F91FF90EF900895CF93DF9300D0C4
:102D7000CDB7DEB769831A8241E050E0BE016F5FD4
:102D80007F4F0E9489160F900F90DF91CF91089589
:102D9000FC01248135816217730748F48081918199
:102DA000009729F0FC01E60FF71F8081089580E06D
:102DB00008950C94C81608950E9409140E94DB1609
:102DC0000E947101C0E0D0E00E94A6012097E1F3CB
:102DD0000E940000F9CFA1E21A2EAA1BBB1BFD0125
:102DE0000DC0AA1FBB1FEE1FFF1FA217B307E407EA
:102DF000F50720F0A21BB30BE40BF50B661F771F42
:102E0000881F991F1A9469F7609570958095909521
:102E10009B01AC01BD01CF010895EE0FFF1F05908E
:102E2000F491E02D0994CF93DF938230910510F453
:102E300082E090E0E0919403F091950320E030E08F
:102E4000A0E0B0E0309739F140815181481759072F
:102E5000B8F04817590771F482819381109729F0CF
:102E600013969C938E9312972CC090939503809306
:102E7000940327C02115310531F04217530718F08C
:102E8000A901DB0101C0EF019A01BD01DF01028050
:102E9000F381E02DD7CF21153105F9F0281B390B2F
:102EA0002430310580F48A819B816115710521F000
:102EB000FB019383828304C09093950380939403D2
:102EC000FE01329644C0FE01E20FF31F81939193FD
:102ED00022503109398328833AC0209192033091DE
:102EE0009303232B41F4209102013091030130938D
:102EF0009303209392032091000130910101211549
:102F0000310541F42DB73EB74091040150910501C0
:102F1000241B350BE0919203F0919303E217F30722
:102F2000A0F42E1B3F0B2817390778F0AC014E5F39
:102F30005F4F2417350748F04E0F5F1F50939303E0
:102F4000409392038193919302C0E0E0F0E0CF01BF
:102F5000DF91CF910895CF93DF93009709F487C055
:102F6000FC01329713821282C0919403D091950391
:102F7000209781F420813181280F391F809192039D
:102F8000909193038217930779F5F0939303E0935D
:102F900092036DC0DE0120E030E0AE17BF0750F4B1
:102FA00012964D915C9113979D014115510509F1C0
:102FB000DA01F3CFB383A28340815181840F951F3F
:102FC0008A179B0771F48D919C911197840F951F1F
:102FD00002969183808312968D919C91139793838F
:102FE00082832115310529F4F0939503E09394032E
:102FF0003EC0D9011396FC93EE9312974D915D91CB
:10300000A40FB51FEA17FB0779F480819181840F23
:10301000951F0296D90111969C938E93828193817C
:1030200013969C938E931297E0E0F0E08A819B8147
:10303000009719F0FE01EC01F9CFCE01029628812C
:103040003981820F931F20919203309193032817A7
:10305000390769F4309729F410929503109294037C
:1030600002C013821282D0939303C0939203DF9124
:10307000CF910895A0E0B0E0E0E4F8E10C941819D5
:10308000EC01CB01209719F40E941317B8C0FE0180
:10309000E60FF71F9E0122503109E217F30708F4EB
:1030A000ACC0D9010D911C91119706171707B8F004
:1030B0000530110508F49FC0A80144505109461776
:1030C000570708F498C002501109061B170B01930B
:1030D00011936D937C93CF010E94AB178CC05B0161
:1030E000A01AB10A4E01800E911EA0919403B091D6
:1030F0009503612C712C60E070E0109709F449C0D1
:10310000A815B905C9F5ED90FC901197670142E04B
:10311000C40ED11CCA14DB0478F147018A189B083D
:10312000640142E0C40ED11C1296BC901297139613
:10313000AC91B5E0CB16D10440F0B282A38391826A
:103140008082D9018D939C9309C00E5F1F4F0E0D95
:103150001F1DF90111830083EB2DFA2F61157105F5
:1031600031F0DB011396FC93EE93129744C0F09379
:103170009503E09394033FC06D917C91119766167F
:10318000770608F43B01BD0112960D90BC91A02D6D
:10319000B4CF609192037091930368157905E9F4B7
:1031A00068167906D0F44091000150910101411553
:1031B000510541F44DB75EB760910401709105016E
:1031C000461B570BE417F507C0F4F0939303E09305
:1031D0009203F901918380830EC00E9413177C0132
:1031E000009759F0A801BE010E940419CE010E9467
:1031F000AB17C70104C0CE0102C080E090E0CDB79C
:10320000DEB7EEE00C943419FB01DC0102C0019042
:103210000D9241505040D8F70895FB01DC01019018
:103220000D920020E1F708952F923F924F925F9206
:103230006F927F928F929F92AF92BF92CF92DF92C6
:10324000EF92FF920F931F93CF93DF93CDB7DEB72B
:10325000CA1BDB0B0FB6F894DEBF0FBECDBF0994BF
:103260002A88398848885F846E847D848C849B8416
:10327000AA84B984C884DF80EE80FD800C811B8124
:10328000AA81B981CE0FD11D0FB6F894DEBF0FBE53
:10329000CDBFED01089510E0C8ECD0E004C0FE0100
:1032A0000E940F172296CA3CD107C9F7F894FFCFA6
:1032B0000000960380000100000090A2DA002B7B42
:1032C00000C001005E0000003C64697620737479E0
:1032D0006C653D226261636B67726F756E643A77ED
:1032E000686974653B20636F6C6F723A67726565DD
:1032F0006E3B20706F736974696F6E3A2061627300
:103300006F6C7574653B206D617267696E3A32301F
:1033100070783B20626F726465723A2067726579DB
:1033200020736F6C6964203270783B207061646434
:10333000696E673A302031307078203470782031EF
:103340003070783B223E003C6831207374796C65A4
:103350003D22666F6E743A206E6F726D616C203222
:103360003070782F313530252056657264616E617A
:103370002C20417269616C2C2053616E732D736532
:103380007269663B223E436F6E74726F6C205468A4
:1033900065206C45445320776972656C6573736C66
:1033A000793C2F68313E003C666F726D3E203C696F
:1033B0006E70757420747970653D22686964646507
:1033C0006E22206E616D653D224C454400222076C0
:1033D000616C75653D2230223E203C696E707574CB
:1033E00020747970653D22636865636B626F782233
:1033F000206E616D653D224C454400222076616C53
:1034000075653D220020636865636B65642000205C
:103410006F6E636C69636B3D227375626D697428AE
:10342000293B223E4C454400203C2F666F726D3E86
:10343000003C2F6469763E00485454502F312E31A1
:1034400020323030204F4B00436F6E74656E742D08
:10345000547970653A20746578742F68746D6C00C7
:10346000020300000000F6061F0739074207600745
:103470008307FF0787075C075C0896080C07E706C9
:10348000EA061407EC0600000000C5088B09DB08FB
:10349000000000007A0AC30A760AD70A1D0B900AB8
:1034A000360BA20AB70A5D0CBF0A630B000B5B0A5E
:1034B000620A720AB30B00000000DC140D0A006EF1
:0E34C000616E00696E66006F7666002E000079
:00000001FF
